:020000040800F2
:10000000800600202902000831020008330200089F
:10001000350200083702000839020008000000001D
:100020000000000000000000000000003B0200088B
:100030003D020008000000003F02000841020008E5
:10004000430200084302000843020008430200087C
:10005000430200084302000843020008430200086C
:10006000430200084302000843020008430200085C
:10007000430200084302000843020008430200084C
:10008000430200084302000843020008430200083C
:10009000430200084302000843020008430200082C
:1000A000430200084302000843020008430200081C
:1000B000430200084302000843020008430200080C
:1000C00043020008430200084302000843020008FC
:1000D00043020008430200084302000843020008EC
:1000E00043020008430200084302000843020008DC
:1000F00043020008430200084302000843020008CC
:1001000043020008430200084302000843020008BB
:1001100043020008430200084302000843020008AB
:10012000430200084302000843020008430200089B
:10013000430200084302000843020008430200088B
:10014000430200084302000843020008430200087B
:10015000430200084302000843020008430200086B
:10016000430200084302000843020008430200085B
:10017000430200084302000843020008430200084B
:10018000430200084302000800F002F800F03CF8C7
:100190000AA090E8000C82448344AAF10107DA45E2
:1001A00001D100F031F8AFF2090EBAE80F0013F0F8
:1001B000010F18BFFB1A43F0010318472804000081
:1001C00048040000103A24BF78C878C1FAD8520712
:1001D00024BF30C830C144BF04680C6070470000C1
:1001E0000023002400250026103A28BF78C1FBD840
:1001F000520728BF30C148BF0B6070471FB500F0E1
:10020000EBF91FBD10B510BD00F031F81146FFF736
:10021000F5FF00F04FF900F04FF803B4FFF7F2FFDD
:1002200003BC00F053F80000094880470948004724
:10023000FEE7FEE7FEE7FEE7FEE7FEE7FEE7FEE796
:10024000FEE7FEE704480549054A064B70470000F3
:100250004904000889010008800000208006002071
:10026000800200208002002070477047704775466A
:1002700000F028F8AE4605006946534620F0070016
:10028000854618B020B5FFF7DDFFBDE820404FF0F0
:1002900000064FF000074FF000084FF0000B21F070
:1002A0000701AC46ACE8C009ACE8C009ACE8C0093D
:1002B000ACE8C0098D4670470446AFF30080204685
:1002C000FFF7ABFF004870471C00002001491820D1
:1002D000ABBEFEE7260002007047000008000020C9
:1002E00000204FF0E0210861094800680949B0FB8F
:1002F000F1F009490860084600684FF47A714843F4
:100300000649086000204FF0E02188617047000036
:10031000DC02000800127A00000000200400002027
:10032000014600200C4A12684A434FF0E0235A610C
:1003300000229A6101221A6100BF4FF0E022106989
:1003400000F480321AB900F00102002AF5D100222F
:100350004FF0E0231A617047040000200CB5002024
:10036000019000903448006840F4803032490860C1
:1003700000BF3148006800F4003000900198401C34
:100380000190009818B90198B0F5A04FF1D12A4812
:10039000006800F4003010B10120009001E000205E
:1003A00000900098012846D123484030006840F072
:1003B00080502149403108602048006840F44040A6
:1003C0001E4908601C48083000681B490831086055
:1003D0000846006840F4004008600846006840F4A1
:1003E000A05008601648091F0860081F006840F008
:1003F0008070091F086000BF0F48006800F000709F
:100400000028F9D040F205700E4908600A4808300B
:10041000006820F0030008490831086008460068B9
:1004200040F00200086000BF03480830006800F098
:100430000C000828F8D10CBD0038024000700040C4
:1004400019544007003C024010B51548006840F4BC
:100450007000134908601348006840F0010011491A
:10046000086000200F49083108600E4800680E49F6
:1004700008400C4908600D48091D0860081F006805
:1004800020F48020091F0860002006490C31086014
:10049000FFF764FF4FF0006001498039086010BD2C
:1004A00088ED00E000380240FFFFF6FE1030002427
:1004B000001402404548016841F0040101604448CD
:1004C000016841F0010141F0040141F0100141F0E7
:1004D000400141F4807141F4806141F4805141F464
:1004E00080410160FFF7FCFE3A484FF08001016057
:1004F0004FF4FA70FFF714FF36484FF00001016027
:100500004FF4FA7033484FF0400101604FF4FA7035
:10051000FFF706FF2F484FF0000101604FF4FA701B
:100520002C484FF0200101604FF4FA70FFF7F8FEFD
:1005300028484FF0000101604FF4FA7025484FF051
:10054000100101604FF4FA70FFF7EAFE21484FF006
:10055000000101604FF4FA701E484FF0080101607D
:100560004FF4FA70FFF7DCFE1A484FF0000101600B
:100570004FF4FA7017484FF0040101604FF4FA701D
:10058000FFF7CEFE13484FF0000101604FF4FA7000
:1005900010484FF0020101604FF4FA70FFF7C0FEFF
:1005A0000C484FF0000101604FF4FA7009484FF019
:1005B000010101604FF4FA70FFF7B2FE05484FF0F9
:1005C000000101604FF4FA708EE7000030380240FD
:1005D00000080240140802404FF04070E1EE100A9B
:1005E0007047000004060008000000201C00000006
:1005F000C4010008200600081C000020640600005A
:10060000E00100080000000000000000007A030A7A
:1006100000000000000000000102030406070809B2
:040000050800018965
:00000001FF
